:100000000C946D000C9495000C9495000C94950044
:100010000C9495000C9495000C9495000C9495000C
:100020000C9495000C9495000C9495000C949500FC
:100030000C9495000C9495000C9495000C949500EC
:100040000C94AC0B0C9495000C947A0B0C94540B00
:100050000C9495000C9495000C9495000C949500CC
:100060000C9495000C9495000000000023002600DD
:100070002900450000820000400020638253630095
:100080000108000604000100000000240027002AE7
:100090000000000000250028002B000404040404D4
:1000A0000404040202020202020303030303030125
:1000B00002040810204080010204081020010204FC
:1000C00008102000000008000201000003040700DF
:1000D0000000000000000000F60D11241FBECFEF4D
:1000E000D8E0DEBFCDBF12E0A0E0B1E0E4E4F5E28D
:1000F00002C005900D92AA31B107D9F725E0AAE117
:10010000B2E001C01D92AF30B207E1F710E0CDE6DA
:10011000D0E004C02197FE010E949D0FCC36D1078C
:10012000C9F70E943B0C0C94A0120C940000CF93D2
:10013000DF9320910B052223C1F0FC0120812223B3
:10014000A1F0CBE0D5E0A7E0B5E09C012C5F3F4FEC
:10015000899141919D918427892339F4E217F3070E
:10016000B9F781E0DF91CF91089580E0FBCFAF92A6
:10017000BF92CF92DF92EF92FF920F931F93CF9394
:10018000DF936C017B018B01040F151FEB015E01F6
:10019000AE18BF08C017D10759F06991D601ED918B
:1001A000FC910190F081E02DC6010995892B79F72A
:1001B000C501DF91CF911F910F91FF90EF90DF90DC
:1001C000CF90BF90AF900895FC01538D448D252FA3
:1001D00030E0842F90E0821B930B541710F0CF96E1
:1001E000089501970895FC01918D828D981761F013
:1001F000A28DAE0FBF2FB11D5D968C91928D9F5F2A
:100200009F73928F90E008958FEF9FEF0895FC0108
:10021000918D828D981731F0828DE80FF11D858DBB
:1002200090E008958FEF9FEF0895FC01918D228D4E
:10023000892F90E0805C9F4F821B91098F739927D3
:1002400008958AE694E00E94150121E0892B09F4C3
:1002500020E0822F089580E090E0892B29F00E9411
:10026000210181110C9400000895FC01A48DA80FB8
:10027000B92FB11DA35ABF4F2C91848D90E00196E8
:100280008F739927848FA689B7892C93A089B18908
:100290008C91837080648C93938D848D981306C0A9
:1002A0000288F389E02D80818F7D80830895EF920D
:1002B000FF920F931F93CF93DF93EC0181E0888F20
:1002C0009B8D8C8D98131AC0E889F989808185FFF0
:1002D00015C09FB7F894EE89FF896083E889F98992
:1002E00080818370806480839FBF81E090E0DF9194
:1002F000CF911F910F91FF90EF900895F62E0B8DE7
:1003000010E00F5F1F4F0F731127E02E8C8D8E11A1
:100310000CC00FB607FCFACFE889F989808185FF08
:10032000F5CFCE010E943501F1CFEB8DEC0FFD2F03
:10033000F11DE35AFF4FF0829FB7F8940B8FEA89C3
:10034000FB8980818062CFCFCF93DF93EC01888DD2
:100350008823B9F0AA89BB89E889F9898C9185FD40
:1003600003C0808186FD0DC00FB607FCF7CF8C91CE
:1003700085FFF2CF808185FFEDCFCE010E94350150
:10038000E9CFDF91CF91089590E0FC01ED53FF4F4D
:100390002491FC01E155FF4F3491FC01E556FF4FDC
:1003A000E491EE23C9F0222339F0233001F1A8F4BF
:1003B000213019F1223029F1F0E0EE0FFF1FEF5646
:1003C000FF4FA591B4918FB7F894EC91611126C0BD
:1003D00030953E233C938FBF08952730A9F02830F5
:1003E000C9F0243049F7809180008F7D03C080914F
:1003F00080008F7780938000DFCF84B58F7784BDB6
:10040000DBCF84B58F7DFBCF8091B0008F77809359
:10041000B000D2CF8091B0008F7DF9CF3E2BDACFE4
:10042000CF93DF9390E0FC01E155FF4F2491855677
:100430009F4FFC0184918823D1F090E0880F991F91
:10044000FC01E957FF4FA591B491FC01EF56FF4F16
:10045000C591D49161110EC09FB7F8948C91E22F91
:10046000E0958E238C932881E223E8839FBFDF9160
:10047000CF9108958FB7F894EC91E22BEC938FBF56
:10048000F6CF3FB7F8948091460490914704A0912D
:100490004804B091490426B5A89B05C02F3F19F028
:1004A0000196A11DB11D3FBFBA2FA92F982F8827F4
:1004B000BC01CD01620F711D811D911D42E0660FCF
:1004C000771F881F991F4A95D1F708952FB7F89481
:1004D00060914204709143048091440490914504DA
:1004E0002FBF089580915D0290915E029827892721
:1004F0009827449720917B0230E044E0359527957A
:100500004A95E1F7220F331F220F331F821B930BF3
:1005100097FF02C090E080E0089520917102309131
:100520006F023093710220936F022091720230911A
:1005300070023093720220937002EDE4F2E021A584
:10054000820F911D25A585A7662381F021A7892FFC
:100550009927319722E0E934F20789F710927F0258
:100560001092800280E580937B02089511A6EFCF60
:100570000F931F93CF93DF9370E0635B7D4F8A01EE
:10058000075F1F4F213029F0223031F48A010250D9
:10059000110930E020E003C000E010E09801EB0119
:1005A000FA01E230F10558F0A991B991BA27AB27C9
:1005B000BA270A0F1B1F211D311D3297F2CFFA01F6
:1005C000EE7F6E0F7F1F4E175F0769F0FB014081C2
:1005D00050E070E060E0762F652F542F4427040F21
:1005E000151F261F371FA9016627772741155105BB
:1005F0006105710519F022273327F1CF0095109579
:10060000E82FF0E0E35BFD4F10830183DF91CF9192
:100610001F910F910895EDE4F2E0108E118E80E4A9
:10062000848B158A868B20E044E150E06EE088E1FF
:100630000C94B8028EBD0DB407FEFDCF089561E0A5
:1006400080914A040E94C40178940895F89460E06F
:1006500080914A040C94C4010F931F93CF93DF93AE
:10066000EC018B010E9426032097B9F08AE30E94D7
:100670001A031EBCF801CE01019739F00DB407FE34
:10068000FDCF2EB51EBC2193F7CF2197C00FD11FF0
:100690000DB407FEFDCF8EB58883DF91CF911F91FA
:1006A0000F910C941F031F93CF93DF93182FC62F26
:1006B000D42F0E9426038C2F8F71812B0E941A0346
:1006C0008D2F0E941A03DF91CF911F910C941F036D
:1006D000CF93C82FC07680914C028C1799F043E0DD
:1006E0006FE180EA0E945303C0934C024C2F50E00C
:1006F00085E0559547958A95E1F76FE180E8CF91C0
:100700000C945303CF910895CF93DF93C82FD62F26
:100710000E9468034D2F6C2F80E4DF91CF910C94E1
:100720005303CF93DF93C82FD72F0E9484036D2FDD
:1007300081E08C0FDF91CF910C948403CF93C82F6D
:100740000E9468030E9426038C2F8F710E941A0357
:1007500080E00E941A03C7FF03C080E00E941A03D2
:10076000CEB50E941F038C2FCF910895CF93DF93B6
:10077000EC0140E86FE180E80E94530340E86FE13C
:1007800080EA0E9453034AE06CE180EA0E9453032E
:1007900060E07CE082E00E949103BE01745F86E02D
:1007A0000E94910340E060E08AE70E9453030E94A8
:1007B00026032097B1F08AE70E941A0380914D0228
:1007C0008EBDEEE4F2E0C35BDD4FEC17FD0731F0C8
:1007D00081910DB407FEFDCF8EBDF7CF0DB407FE9E
:1007E000FDCF0E941F0348E06FE180E80E945303A1
:1007F000D0E0C0E08CE10E949E038A7029F421962B
:10080000C83E83E0D807B1F78CE10E949E0381FDCA
:1008100003C0C83ED34039F448E06FE180EADF917D
:10082000CF910C945303DF91CF9108950F931F93B1
:10083000CF93DF938C018896CDE4D2E0988B898B9F
:100840000E940B031AAA1BAAA801445E5F4F22E074
:100850006AE182E30E94B802C801C696DF91CF9197
:100860001F910F910C94B603CF93DF93EB01682F88
:1008700084ED0E948403BE0186ED0E9491038AEEFE
:100880000E949E0380FDFBCFDF91CF910895CF9210
:10089000DF92EF92FF920F931F938634910568F1D8
:1008A00020917002233449F5C0907B02D0907C02E5
:1008B000E0907D02F0907E02009148021091490282
:1008C00020914A0230914B02C016D106E206F3068F
:1008D000A1F4E7E6F3E0835B9D4F9F012E5F3F4F5E
:1008E00041815081553319F45281651771F0F90136
:1008F000E40FF11DE817F90780F380E01F910F91D5
:10090000FF90EF90DF90CF90089581E0F7CFE091D6
:100910004102F09142029F012F5F3F4F309342020C
:100920002093410280830895FF920F931F93CF93EA
:10093000DF93162FF42E052F0E948704812F0E942B
:100940008704CF2DD02F115020F089910E94870469
:10095000FACFDF91CF911F910F91FF900895DC01A5
:1009600096E0FB0101900D929A95E1F70895BC0184
:100970008DE492E00E94AF0464E574E083E592E0C8
:100980000C94AF04DC0194E0FB0101900D929A9568
:10099000E1F7089583E592E00E94B70467E672E00C
:1009A0008BE692E00E94C2046BE075E087E692E07D
:1009B0000E94C2040C940B03262F206120937C021A
:1009C000643021F0009711F481E090E061E00E9432
:1009D0008D0210925D0288E280935E020E94CA043A
:1009E00084E080937D0210927E0222E04CE150E090
:1009F0006AE182E30E94B80286E390E00C94B603B9
:100A0000CF93DF93EB010E94B704BE018BE692E027
:100A10000E94C2046BE075E087E692E0DF91CF911F
:100A20000C94C204CF93DF93EB0144E050E0BC018F
:100A300089E692E00E94B20F892B49F463E672E0E6
:100A4000CE010E94AF0481E0DF91CF91089580E054
:100A5000FBCF0F931F93CF938C0180E391E00E9413
:100A6000B704EDE4F2E088E08487C6E0C58748E09B
:100A700050E06FE770E08BE592E00E94230EEDE618
:100A8000F2E0DF011D92CA95E9F764E574E083E6C0
:100A900092E00E94AF04B80183E792E00E94C20492
:100AA0006BE075E089E692E00E94C2048AE290E081
:100AB000CF911F910F910C94B603EF92FF920F9379
:100AC0001F93CF93DF938C01EDE4F2E086E191E098
:100AD000DF019C011D9221503040E1F780914702D7
:100AE000C0E3D1E0833011F4C3E4D2E0CE010E9430
:100AF0009700BE01882309F4ACC08BE392E00E940A
:100B000000058881807F803E91F088819981AA814B
:100B1000BB818F3F9F4FAF4FBF4F49F044E050E044
:100B2000BE018AE594E00E94B20F892B31F460E3A4
:100B300071E08DE492E00E94AF0488E08093590256
:100B400010925A0249E050E062E770E08BE592E0D3
:100B50000E94230E10925D0281E180936402109244
:100B6000710283E48093720210926F0284E4809396
:100B7000700210927302109275021092760260E376
:100B800071E08DE492E00E94AF0481E080937702EF
:100B90008093780286E08093790280914802909158
:100BA0004902A0914A02B0914B0280937B0290933C
:100BB0007C02A0937D02B0937E02C0914702C330B5
:100BC00031F46BE075E083E892E00E94C20464E5D2
:100BD00074E083E992E00E94AF0483E693E090938F
:100BE000420280934102EBE7F0E084910E94870487
:100BF000ECE7F0E084910E948704EDE7F0E0849157
:100C00000E948704EEE7F0E084910E94870485E368
:100C10000E94870481E00E94870483E0C11101C023
:100C200081E00E9487048DE30E94870487E00E9490
:100C3000870481E00E94870484E5E82E84E0F82E92
:100C4000C7E0C15049F0D7018D917D010E94870412
:100C5000F8CF85E392E053CF80910201882371F0B1
:100C600062E071E0FB0101900020E9F7BF016350F1
:100C7000714042E051E08CE00E949404011511059E
:100C800059F0A80164E082E30E94940443E452E036
:100C900064E086E30E94940487E30E94870483E073
:100CA0000E94870481E00E94870483E00E948704F9
:100CB00086E00E9487048FEF0E948704C091410262
:100CC000D0914202C757D240CE014C9690935D021C
:100CD00080935E020E940B03CE01089690937302EC
:100CE00080937402AE01405F5F4F21E06AE188E2C9
:100CF0000E94B802CE018A96DF91CF911F910F9189
:100D0000FF90EF900C94B6034F925F926F927F9298
:100D10008F929F92AF92BF92CF92DF92EF92FF920B
:100D20000F931F93CF93DF93CDB7DEB7CC50D14055
:100D30000FB6F894DEBF0FBECDBF80E480937C0079
:100D400080917A00806480937A0080917A0086FD99
:100D5000FCCF80917800909179007E0121E0E20E35
:100D6000F21E4AE0B7010E942C0E60E087E00E946C
:100D7000C40183E090E00197F1F761E087E00E9411
:100D8000C40183E290E00197F1F760E087E00E9400
:100D9000C401E5EBF0E06491E1EAF0E0E491F0E019
:100DA000EE0FFF1FE859FF4F8591949100E412E484
:100DB0002FE030E0462F0E94F60B6115710581058A
:100DC000910529F06F5F7F4F8F4F9F4F9F708E016E
:100DD000095F1E4F0E94990E26E933E44BE05DE364
:100DE0000E94FD0E20E030E040E05FE30E94FD0E37
:100DF0000E94610ECB014AE0B8010E942C0E1F93A5
:100E00000F93FF92EF9288E491E09F938F93CE012E
:100E100001967C019F938F930E94C80F0FB6F894A0
:100E2000DEBF0FBECDBF80911C02882379F0609198
:100E30001A0270911B026115710509F050C16FEF24
:100E40007BE08CE00E94910310921C0289E30E94D7
:100E50009E0310E000E0882309F445C060911A0267
:100E600070911B0280E00E949103BE0165507F4F8C
:100E700086E090E00E942C03C550DF4F8881998165
:100E8000CB5FD04090931B0280931A02C150DF4F7A
:100E900088819981CF5FD0408C010078112787FF2E
:100EA00016C0C350DF4F88819981CD5FD040049731
:100EB00000914B0410914C040150110980179107C7
:100EC00008F48C016DE472E0C8010E942C03F80163
:100ED000E35BFD4F108281E080931C0240E46EE1F1
:100EE00080E80E94530380916904882369F080910F
:100EF0004702823009F4FCC008F0F4C0882309F4EA
:100F000080C1813009F49CC10115110509F029C285
:100F100080916204857029F180916304909164044A
:100F2000892BF9F461E184ED0E94840361E082ED94
:100F30000E9484038AEE0E949E0380FDFBCF60E046
:100F400082ED0E94840389ED0E949E0382FF09C006
:100F50008EE594E00E942905809162048860809368
:100F600062048091630490916404019690936404F8
:100F70008093630480913202813009F06EC08091C9
:100F8000620481FF6AC082E0809332028091010195
:100F90008F5F80930101182F1F718CE292E00E94F5
:100FA00097006CE272E0882309F4D8C18BE392E0E9
:100FB0000E94000508E00093590210925A0249E08D
:100FC00050E062E770E08BE592E00E94230E8CE235
:100FD00080935E0286E0809364020E940B0310926D
:100FE0007102109272028BE080936F021093700274
:100FF000E3E7F2E0DF011D920A95E9F78091000135
:10100000809375028D5F8093000180E680937B0260
:1010100082E080937C0293E090937D0210927E02A6
:1010200010927F021092800210928102109282022E
:101030008093830294E0909384028093850286E2F9
:101040008093860222E040E250E06AE182E30E945F
:10105000B8028AE390E00E94B60385E694E00E941D
:101060009700882379F08091310281110BC0809123
:101070003002811107C085E694E00E94290581E0D5
:10108000809330028CE292E00E949700882379F0EE
:1010900080912B0281110BC080912A02811107C01F
:1010A0008CE292E00E94290581E080932A02C45FCD
:1010B000DE4F0FB6F894DEBF0FBECDBFDF91CF91EC
:1010C0001F910F91FF90EF90DF90CF90BF90AF9066
:1010D0009F908F907F906F905F904F900895615098
:1010E0007109AFCE833009F457C0843009F00CCFBA
:1010F00065E0C8010E944704882309F4CCC08091B0
:101100001D02811108C088E30E949E03682F6E7F34
:1011100088E30E94840367E872E08BE095E00E9418
:10112000C204E7E6F3E0C801835B9D4F5C016F01F9
:1011300092E0C90ED11C91808081863009F4FDC0F7
:1011400008F0C0C0813009F4EEC0833009F4F1C06A
:10115000F601E90DF11DEA15FB0548F30E94660250
:1011600060932202709323028093240290932502BD
:1011700080915E04882361F01092640410926304ED
:1011800081E0809362046EE574E0CB010E94C204AA
:1011900083E080934702B8CE809026029090270289
:1011A000A0902802B0902902BFEF8B169B06AB06D9
:1011B000BB0609F4A9CE0E9466024090220250901C
:1011C0002302609024027090250264197509860933
:1011D0009709681579058A059B0508F495CE8BE07B
:1011E00095E00E945D0584E0809347020E946602BC
:1011F00060931E0270931F0280932002909321023D
:1012000083CE0E94660260934802709349028093E5
:101210004A0290934B02EBE0F5E084E0DF011D927F
:101220008A95E9F790E080E00E945D0588E30E94DE
:101230009E03682F616088E30E94840381E0D4CF1D
:1012400062E0C8010E944704882329F167E872E040
:10125000CE0185509F4F0E94C204E7E6F3E0C8012B
:10126000835B9D4FBF016E5F7F4F2181308136339D
:1012700059F483E492E00E94C204CE0185509F4F4E
:101280000E945D0582E0B0CFFB01E20FF11DE8177F
:10129000F90740F3F2CF0E94660280901E02909000
:1012A0001F02A0902002B0902102681979098A09D2
:1012B0009B09613177428105910508F425CE109292
:1012C000470222CE8A3331F08F3F09F447CF833370
:1012D00009F03ECF109226021092270210922802A7
:1012E00010922902F601C601049620E030E0A9011F
:1012F0006191542F432F322F2227260F311D411D7C
:10130000511D8E179F07A1F72F3FAFEF3A074A07EE
:101310005A07B9F4209326023093270240932802FB
:101320005093290215CFB60187E095E00E94C204D0
:101330000FCFB6018EE594E0F9CFB60185E694E0D3
:10134000F5CFA8EEB3E00E94920F6093260270934F
:1013500027028093280290932902FACE85E392E037
:1013600027CE0932110508F4A2CE809159028830A7
:1013700009F09DCE80915A02863009F04DC144E0BB
:1013800050E06BE075E083E792E00E94B20F892B9A
:1013900009F08DCE80916202813029F583E592E0DB
:1013A0000E94B7041092610282E08093620263E6B9
:1013B00072E08DE692E00E94AF0464E574E083E69B
:1013C00092E00E94AF0469E672E083E792E00E9437
:1013D000C2046BE075E089E692E00E94C2048AE2F2
:1013E00090E00E94B6038091620483FF0DC01091CB
:1013F0006202123049F465E372E08EE594E00E94E7
:10140000120581111093620480913102811111C083
:1014100080913002882369F06BE372E085E694E006
:101420000E941205882329F081E0809331021092F6
:10143000300280912B0281113ACE80912A028823BA
:1014400009F435CE6BE372E08CE292E00E94120563
:10145000882309F42CCE81E080932B0210922A027B
:1014600026CE0633110508F422CE863009F01FCEB1
:10147000809171028B3009F04BC044E050E06CE287
:1014800072E087E692E00E94B20F892B09F00FCE3E
:1014900010917C0285E012FD33C00E9472022091FF
:1014A0003202223001F5212F2271223181F460E0D5
:1014B00090E080E00E94DC0488E180937C0283E07D
:1014C0008093320290E080E00E941604F0CD21E08B
:1014D00020933202019614FF02C090E080E064E0A5
:1014E0000E94DC04E4CD253009F4E1CD10FF0BC0EF
:1014F000233009F4DCCD69E001960E94DC0486E02B
:1015000080933202D4CD60E0009709F4D0CDE8CFCB
:101510008111CDCD80917202803509F0C8CDB09097
:101520007C02B1FE39C010925D028CE280935E02B3
:101530000E94CA0482E180937C0260E081E090E036
:101540000E948D0210927302109274028091000129
:1015500080937502109276028D5F8093000182E085
:101560008093830284E08093840285E080938502E7
:101570001092860290E690937B0280937D0288E72A
:1015800080937E0222E040E250E06AE182E30E9422
:10159000B8028AE390E085C0B4FE89CD0E94720251
:1015A0006C019093340280933302892B79F18091FE
:1015B0007B0290E024E0959587952A95E1F7880FC6
:1015C000991F880F991F82960817190708F46FCD85
:1015D000F70101900020E9F73197AF014E195F093B
:1015E000B70183E892E00E94BF0FF701019000204D
:1015F000E9F731978F010E191F0960E0C6010E94BB
:10160000DC0489E180937C02C8015ECFB0FE4FCD3F
:1016100060E090E080E064CF0932110509F447CD25
:10162000811145CD80915B02853409F040CD44E0C5
:1016300050E06BE075E08BE692E00E94B20F892BE0
:10164000A9F044E050E06AE574E08BE692E00E9485
:10165000B20F892B59F044E050E060E371E08BE673
:1016600092E00E94B20F892B09F021CD8091640293
:10167000813009F0F6CE80916F02883009F017CDE5
:101680000E94CA0410926F0280917102883F28F074
:10169000909172029F5F90937202885F80937102B3
:1016A000C8010E94B60303CD1F920F920FB60F928E
:1016B00011242F933F934F935F936F937F938F9357
:1016C0009F93AF93BF93EF93FF938AE694E00E94BA
:1016D0003501FF91EF91BF91AF919F918F917F91D4
:1016E0006F915F914F913F912F910F900FBE0F908F
:1016F0001F9018951F920F920FB60F9211242F93DF
:101700008F939F93EF93FF93E0917A04F0917B0482
:101710008081E0918004F091810482FD1BC0908162
:10172000809183048F5F8F7320918404821741F02E
:10173000E0918304F0E0E659FB4F958F809383049A
:10174000FF91EF919F918F912F910F900FBE0F906E
:101750001F9018958081F4CF1F920F920FB60F92B1
:1017600011242F933F938F939F93AF93BF938091B7
:10177000420490914304A0914404B09145043091F7
:10178000410423E0230F2D3758F50196A11DB11D0B
:10179000209341048093420490934304A093440413
:1017A000B09345048091460490914704A091480469
:1017B000B09149040196A11DB11D809346049093F8
:1017C0004704A0934804B0934904BF91AF919F91FF
:1017D0008F913F912F910F900FBE0F901F901895F2
:1017E00026E8230F0296A11DB11DD2CFCF92DF9222
:1017F000EF92FF920F931F93E82FF92F05C001502E
:1018000011092109310961F1908196239417B9F3E7
:1018100005C0015011092109310911F19081962368
:101820009413F7CFC12CD12CE12CF12C0AC08FEFEF
:10183000C81AD80AE80AF80A0C151D052E053F0536
:1018400079F080818623841791F36C2D7D2D8E2D68
:101850009F2D1F910F91FF90EF90DF90CF900895F3
:1018600060E070E080E090E01F910F91FF90EF90BA
:10187000DF90CF900895789484B5826084BD84B55C
:10188000816084BD85B5826085BD85B5816085BD7B
:1018900080916E00816080936E0010928100809133
:1018A00081008260809381008091810081608093BB
:1018B0008100809180008160809380008091B100E0
:1018C00084608093B1008091B00081608093B0000B
:1018D00080917A00846080937A0080917A0082609F
:1018E00080937A0080917A00816080937A00809161
:1018F0007A00806880937A001092C100E0917A04A7
:10190000F0917B0482E08083E0917604F09177048B
:101910001082E0917804F09179048FEC808310922A
:101920008204E0917E04F0917F0486E08083E09160
:101930007C04F0917D04808180618083E0917C044F
:10194000F0917D04808188608083E0917C04F09137
:101950007D04808180688083E0917C04F0917D0427
:1019600080818F7D808361E087E00E94100260E0CB
:1019700086E00E9410021092690487E390E0C12C77
:10198000D12C7601C3940097C1F0FC0123E0F595BA
:10199000E7952A95E1F7E35BFB4F282F2770B70106
:1019A000A60104C0440F551F661F771F2A95D2F762
:1019B0002081242B20830197E6CF6AE271E084E541
:1019C00094E00E94AF0484EF91E090934C048093E4
:1019D0004B040CB406FC25C061E08AE00E941002B2
:1019E00061E08AE00E94C40161E08BE00E94100285
:1019F00061E08DE00E94100260E08CE00E94100225
:101A000061E08BE00E94C40160E08BE00E94C401B1
:101A100060E08DE00E94C40180E58CBD8DB58160E1
:101A20008DBD8AE080934A0461E00E9410020E940A
:101A30001F034FEF60E08FEF0E9453030E944102AB
:101A40006B017C0192E0892E912CA12CB12C0E947B
:101A500041026C197D098E099F09683E734081051A
:101A60009105A8F328EEC20E23E0D21EE11CF11C62
:101A70008A9489288A288B2829F0812C912C54015A
:101A80008394E5CF0E9426038DE10E941A0380E033
:101A90000E941A03CEB50E941F03CC2399F370E075
:101AA00060E088E00E94910370E060E08CE00E94BA
:101AB00091036FEF7BE08AE00E94910360E07CE09D
:101AC00084E00E9491036FEF71E186E00E94910330
:101AD00066E774E084E10E94340461EB88E30E94CD
:101AE00084036FE370E388E20E94910369EF77EF6C
:101AF00080E30E94910361E080EC0E94840342E352
:101B000062EC80E80E94530362E17CE086EC0E9474
:101B1000910362E184EC0E9484036CED75E08AEC31
:101B20000E9491036091540484EE0E9484036091AA
:101B3000550485EE0E9484036091560482EE0E9453
:101B400084036091570483EE0E94840360915804DB
:101B500080EE0E9484036091590481EE0E94840308
:101B600060E071E080E10E9434048FE10E9468032C
:101B700040EC6BE180E80E94530344E06FE180E8B1
:101B80000E94530382E70E949E031092690466E25A
:101B900071E08BE095E00E94C20410926404109200
:101BA000630481E08093620462E271E08EE594E078
:101BB0000E94C204EBE0F5E0C7E0D5E0AAE5B4E09E
:101BC000919189918095892B8D9385E0EF30F8076D
:101BD000B9F7C0E0D0E00E9484062097E1F30E94AC
:101BE00021018823C1F30E940000F5CFEAE6F4E06A
:101BF0001382128288EE93E0A0E0B0E084839583A4
:101C0000A683B7838AE391E09183808385EC90E09B
:101C10009587848784EC90E09787868780EC90E0B6
:101C2000918B808B81EC90E0938B828B82EC90E0A7
:101C3000958B848B86EC90E0978B868B118E128E21
:101C4000138E148E0895FB01DC0102C005900D92E5
:101C500041505040D8F70895BB274A3031F49923BA
:101C600022F4BDE2909581959F4F0C94380EBB27CE
:101C7000FB015527AA27880F991FAA1FA41710F048
:101C8000A41B83955051B9F7A05DAA3308F0A95D54
:101C9000A193009779F7B111B1931192CB010C94F4
:101CA000510EDC01FC01672F71917723E1F7329728
:101CB00004C07C916D9370836291AE17BF07C8F327
:101CC00008950E94680E6894B1110C94F70E08955F
:101CD0000E94DC0E88F09F5798F0B92F9927B751D2
:101CE000B0F0E1F0660F771F881F991F1AF0BA95C0
:101CF000C9F714C0B13091F00E94F60EB1E008951A
:101D00000C94F60E672F782F8827B85F39F0B93F0B
:101D1000CCF3869577956795B395D9F73EF4909572
:101D20008095709561957F4F8F4F9F4F0895E894F0
:101D300009C097FB3EF490958095709561957F4F13
:101D40008F4F9F4F9923A9F0F92F96E9BB279395C1
:101D5000F695879577956795B795F111F8CFFAF4D1
:101D6000BB0F11F460FF1BC06F5F7F4F8F4F9F4F02
:101D700016C0882311F096E911C0772321F09EE860
:101D8000872F762F05C0662371F096E8862F70E0C6
:101D900060E02AF09A95660F771F881FDAF7880FA0
:101DA0009695879597F9089557FD9058440F551FBC
:101DB00059F05F3F71F04795880F97FB991F61F0CD
:101DC0009F3F79F087950895121613061406551F44
:101DD000F2CF4695F1DF08C0161617061806991FB0
:101DE000F1CF86957105610508940895E894BB27A5
:101DF00066277727CB0197F908950E94100F0C945E
:101E0000810F0E94730F38F00E947A0F20F0952303
:101E100011F00C946A0F0C94700F11240C94F70EAF
:101E20000E94D40E70F3959FC1F3950F50E0551F9B
:101E3000629FF001729FBB27F00DB11D639FAA271F
:101E4000F00DB11DAA1F649F6627B00DA11D661F6E
:101E5000829F2227B00DA11D621F739FB00DA11D8F
:101E6000621F839FA00D611D221F749F3327A00D49
:101E7000611D231F849F600D211D822F762F6A2FE5
:101E800011249F5750409AF0F1F088234AF0EE0F4A
:101E9000FF1FBB1F661F771F881F91505040A9F777
:101EA0009E3F510580F00C946A0F0C94F70E5F3F33
:101EB000E4F3983ED4F3869577956795B795F795B3
:101EC000E7959F5FC1F7FE2B880F911D969587952B
:101ED00097F9089597F99F6780E870E060E00895AA
:101EE0009FEF80EC089500240A9416161706180632
:101EF0000906089500240A9412161306140605060E
:101F00000895092E0394000C11F4882352F0BB0F9E
:101F100040F4BF2B11F460FF04C06F5F7F4F8F4F01
:101F20009F4F08950E94A30FA59F900DB49F900D01
:101F3000A49F800D911D11240895EE0FFF1F0590A1
:101F4000F491E02D0994A29FB001B39FC001A39F1B
:101F5000700D811D1124911DB29F700D811D1124E2
:101F6000911D0895FB01DC0104C08D910190801941
:101F700021F441505040C8F7881B990B0895FB018C
:101F8000DC0102C001900D9241505040D8F70895F5
:101F9000AEE0B0E0EEECFFE00C9477120D891E8904
:101FA00086E08C831A8309838FEF9FE79E838D835E
:101FB000AE01475E5F4F6F89788DCE0101960E941A
:101FC000EB0F2F813885020F131FF80110822E9618
:101FD000E4E00C949312ABE0B0E0E1EFFFE00C948E
:101FE00069127C013B018A01FC0117821682838100
:101FF00081FFC8C1CE0101965C01F7019381F30115
:1020000093FD859193FF81913F01882309F453C18A
:10201000853239F493FD859193FF81913F0185329B
:1020200029F4B70190E00E94DB11E7CF912C212C1D
:10203000312CFFE1F31538F08B3211F190F480323E
:1020400009F1833229F137FC3CC020ED280F2A30FA
:1020500050F536FE20C08AE0989E200D1124922E65
:1020600006C08D3291F0803371F7689430F8F30137
:1020700093FD859193FF81913F018111DACF21C0BA
:10208000689431F8689432F8F2CF689433F8EFCF5F
:10209000689434F8ECCFEAE02E9E200D1124222E15
:1020A000689435F8E4CF8E3229F436FC04C1689484
:1020B00036F8DDCF8C3619F4689437F8D8CF8836E7
:1020C000B1F2982F9F7D95549330E0F08336A1F1C3
:1020D0008337C1F1833509F063C02801F2E04F0E68
:1020E000511CF801C080D180692D70E036FC02C01F
:1020F0006FEF7FEFC6010E94C5114C01689437F85D
:1021000082010AC00C5F1F4FFFE3F9838824839488
:10211000912C6501E89437F833FE2DC0522C8114C0
:10212000910471F5552009F468CFB70180E290E081
:102130000E94DB115A94F6CFF801808189830E5FEB
:102140001F4FE4CF2801F2E04F0E511CF801C08070
:10215000D180692D70E036FC02C06FEF7FEFC601C1
:102160000E94D0114C018201D5CFB70180E290E0EE
:102170000E94DB112A942814190409F0B0F7CECF7D
:10218000F60137FC859137FE81916F01B70190E030
:102190000E94DB1151105A94F1E08F1A9108BFCFC1
:1021A000843619F0893609F077C0F80137FE6BC024
:1021B00060817181828193810C5F1F4FF32DFF76C7
:1021C0003F2E97FF09C090958095709561957F4F40
:1021D0008F4F9F4F689437F82AE030E0A5010E94A6
:1021E0000B12C82ECA188C2C432C36FE0CC0E89457
:1021F00040F8C91440F434FE05C032FC03C0F32D8E
:10220000FE7E4F2E892C44FE95C0FE01EC0DF11D83
:102210008081803309F087C0242D297E422E842DB1
:102220008870582E43FC95C040FE8FC09C2C8214B1
:1022300018F42C0C922C981844FE91C0B70180E33E
:1022400090E00E94DB1142FE09C088E790E041FE69
:1022500002C088E590E0B7010E94DB11C91408F4C0
:102260008AC0CA94D12C9FEFC91AD90ACA0CDB1CA8
:10227000F60182916F01B70190E00E94DB11AC146E
:10228000BD04B1F74FCF60817181072E000C880B20
:10229000990B0E5F1F4F92CFD32CE894D4F82AE00D
:1022A00030E0853739F1232D297FD22E8F3601F189
:1022B00048F48835A9F0F701868197812B96E2E1F1
:1022C0000C948512803749F08837A9F7D4FE02C0F4
:1022D0006894D2F820E130E00DC06894D4F8F6CFCD
:1022E00034FE03C0822F8660D82E20E132E002C087
:1022F00028E030E0F801D7FE0FC060817181828153
:1023000093810C5F1F4FA5010E940B12C82ECA18A3
:102310003D2CE89437F867CF6081718190E080E0D0
:102320000E5F1F4FF0CF42FC02C0839478CF83949E
:10233000839475CF842D867809F471CFF6CFB701D9
:1023400080E290E00E94DB1183948214C0F3512C50
:1023500073CF522C5818821408F46ECFF8CF842D06
:10236000867809F47BCF8BE241FE80E247FC8DE268
:10237000B70190E071CFB70180E390E00E94DB11DC
:102380009A946CCF8FEF9FEF99CFFC01059061502D
:1023900070400110D8F7809590958E0F9F1F08957B
:1023A000FC016150704001900110D8F78095909524
:1023B0008E0F9F1F08950F931F93CF93DF93182FB6
:1023C000092FEB018B8181FD09C01FEF0FEF812FDA
:1023D000902FDF91CF911F910F91089582FF14C02C
:1023E0002E813F818C819D81281739073CF4E8813B
:1023F000F981CF0101969983888310838E819F8113
:1024000001969F838E83E3CFE885F985812F099517
:10241000892BA1F3DACFFA01AA27283051F1203114
:1024200081F1E8946F936E7F6E5F7F4F8F4F9F4F68
:10243000AF4FB1E03ED0B4E03CD0670F781F891FAA
:102440009A1FA11D680F791F8A1F911DA11D6A0F78
:10245000711D811D911DA11D20D009F468943F912B
:102460002AE0269F11243019305D3193DEF6CF012A
:102470000895462F4770405D4193B3E00FD0C9F7F0
:10248000F6CF462F4F70405D4A3318F0495D31FD5D
:102490004052419302D0A9F7EACFB4E0A6959795B0
:1024A000879577956795BA95C9F700976105710586
:1024B00008959B01AC010A2E0694579547953795D0
:1024C0002795BA95C9F7620F731F841F951FA01D2A
:1024D00008952F923F924F925F926F927F928F92C8
:1024E0009F92AF92BF92CF92DF92EF92FF920F93A3
:1024F0001F93CF93DF93CDB7DEB7CA1BDB0B0FB6AD
:10250000F894DEBF0FBECDBF09942A883988488869
:102510005F846E847D848C849B84AA84B984C884FF
:10252000DF80EE80FD800C811B81AA81B981CE0FF6
:10253000D11D0FB6F894DEBF0FBECDBFED010895DB
:04254000F894FFCF3D
:102544000A0141726475696E6F2D454E4332386AD3
:1025540036302D3030000000000000000000000084
:102564000000C0A8C1B6C0A8C1DB7469692D3031B0
:10257400FFFFFFFFFFFF000000005701B700E4006A
:10258400A4011501F3000701485454502F312E3192
:1025940020323030204F4B0D0A436F6E74656E74D9
:1025A4002D547970653A20746578742F68746D6C55
:1025B4000D0A436F6E6E656374696F6E3A20636CC7
:1025C4006F73650D0A0D0A3C68746D6C3E0D0A3C10
:1025D400686561643E0D0A3C6D65746120687474BD
:1025E400702D65717569763D2772656672657368CD
:1025F4002720636F6E74656E743D2733273E0D0A82
:102604003C2F686561643E0D0A3C626F64793E0D3F
:102614000A4E696C616920706F74656E73696F6DC1
:10262400657465723A2025733C62723E0D0A4A61F4
:1026340072616B20756C747261736F6E696B3A2092
:10264400257320636D0D0A3C2F626F64793E0D0A79
:0A2654003C2F68746D6C3E0D0A0007
:00000001FF
